:020000040000FA
:04000000B2017529AB
:080008000800A0002A08840092
:100010002B18831720088000AA0A03147029A9004E
:100020004030A0004B30A1004C30A400A5013B2182
:10003000AA012108031923282A145020FC3E031C7E
:100040002328AA1450202003AB00280F2B28FF30B0
:10005000A400A50036282808A500A401A600A70131
:100060002B0A03193628A200A3015521A90B4F28FA
:100070001708CF39A41B2038241B10380C389700E0
:10008000250895008316861183122B08831692008B
:1000900083121208FC392A0404389200702970294E
:1000A000A10CA00CA10CA00C08009818181218168E
:1000B0002C08A0002D08A100A201A3015F28602840
:1000C00064008C1A7C28FF30A207031CA307031CC2
:1000D000A007031CA107031C0800220F5E28230FA2
:1000E0005F28FA30A2000030A30060289818181288
:1000F000181664008C1E79281A0803147029040845
:10010000A70085100510051183168510051005112F
:100110000F30860583122708B218AC283A30A100A8
:10012000FC3007213330A600C0201030A100683019
:100130000721C02064300621C0202230A600C02044
:100140002830AB200C30AB200130AB200630AB2088
:10015000B2142708AC283214A600321CBA280510A5
:10016000033C031CBF28BF200730A100D03007216B
:10017000031408003214FE3C031970290514321CC4
:10018000321085140F3086052608F0398604851054
:10019000A60E3218C0283230062103140800A4002D
:1001A000A9080319702924086B21A903D128A400E8
:1001B00029080319702925188317240884000008CA
:1001C00083136B21A40AA903D92883161C141A08C7
:1001D00083169B0A7029030183169A001C1555305B
:1001E0009D00AA309D009C149C18F4281C119B0AA9
:1001F0007029A301A200FF30A207031CA307031C60
:1002000070290330A100E6300721FB28A101FC3E44
:10021000A000A109031C1229FF300000A007031849
:100220000D29A0076400A10F0C290800A101A3015A
:10023000A20003302229A101A301A2000630222935
:10024000A2000530A80023082102031D2929220845
:100250002002043003180130031902302805031D61
:10026000FF3070290038031DFF300405031DFF30E7
:100270007029A501A4011030A600210DA40DA50D23
:100280002208A4022308031C230FA50203184F29E8
:100290002208A40723080318230FA5070310A00DA5
:1002A000A10DA60B3D29200870291030A800A1013E
:1002B000A001A70CA60C031C63292208A007230891
:1002C0000318230FA107A10CA00CA50CA40CA80BCC
:1002D000592924087029840031088A0030088200D6
:1002E000831303138312640008008316813099007E
:1002F0002030980083129030980007309F00C03063
:100300008B008B1786298B1B08006B2F832183168C
:100310008C1683128321E1018321E201832183165C
:100320009B018312E5208316013903191811031D5F
:10033000181583128321831601309B008312E52058
:100340008316990083128321831602309B00831247
:10035000E520D5008321DF0164000E305F02031821
:10036000C829832104305F07D00021300318013EE3
:10037000D100500883169B008312E520D000D101E4
:100380005F08383E8400500880008321DF0FAC29CD
:100390008321DF01640003305F020318E629832113
:1003A00012305F07D00021300318013ED100500801
:1003B00083169B008312E520D000D1015F084B3EDD
:1003C0008400500880008321DF0FCA298321013077
:1003D000A300F430FA208321FE30802001308020F9
:1003E000FE3080200E30802083215508A800FF3089
:1003F000A2007F30A30001300F208321DE01832182
:1004000083216400831683101819831483128318C0
:100410001A2A83210430E40083214630AA00AB016C
:1004200039300520363005203030052030300520A9
:100430008321742A640083168310181D8314831289
:100440008318742A83218321640083161908403C91
:100450008312031D3E2A83210530E40083214630A8
:10046000AA00AB013130052039300520323005209B
:1004700030300520303005208321732A6400831634
:100480001908203C8312031D582A83210530E400FB
:1004900083214630AA00AB013330052038300520D7
:1004A0003430052030300520303005208321732A78
:1004B000640083161908153C8312031D722A8321D8
:1004C0000530E40083214630AA00AB013530052019
:1004D00037300520363005203030052030300520FB
:1004E0008321732A832183218321831603309B0078
:1004F0008312E520E500832164006508013C031DAB
:10050000822AA22683216400610862020319A02EB8
:100510008321E20A832164006208503C031D912A72
:10052000E20183216208A03E84000008E0008321EC
:1005300064006008FE3C031D992E8321640061085D
:100540006202031DA52A83219E2A8321E20A8321B8
:1005500064006208503C031DAE2AE2018321620858
:10056000A03E84000008CE00CF0183218321A0019A
:10057000A1014F08A3004E082021031DC82A832192
:10058000FE308020013080208321DE018321972EE0
:100590000130A000A1014F08A3004E082021031D37
:1005A000DA2A8321FE308020023080208321DE0180
:1005B0008321972E0230A000A1014F08A3004E080E
:1005C0002021031D032B83217620E000832183213A
:1005D00064006008003C031DF32A83213C2783212B
:1005E00004278321012B64006008013C031D002BBC
:1005F0008321DE0A83211027832104278321012BF5
:1006000083218321972E0330A000A1014F08A3006E
:100610004E082021031D2E2B83217620E00083210C
:10062000832164006008003C031D1C2B83211830CB
:10063000CE00CF0183212A2B64006008013C031DFA
:10064000272B83211C30CE00CF0183212A2B83212D
:10065000822A83218321FD268321972E0430A00046
:10066000A1014F08A3004E082021031D3E2B83212A
:100670007620DE00832104278321972E0530A000F9
:10068000A1014F08A3004E082021031D8A2B8321BE
:100690007620E0008321832164006008003C031D74
:1006A000572B83210830CE00CF018321862B640095
:1006B0006008013C031D622B83210C30CE00CF016A
:1006C0008321862B64006008023C031D6D2B83216F
:1006D0000D30CE00CF018321862B64006008033CDF
:1006E000031D782B83210E30CE00CF018321862B72
:1006F00064006008043C031D832B83210F30CE006F
:10070000CF018321862B8321822A83218321FD2609
:100710008321972E0630A000A1014F08A3004E08A8
:100720002021031D9E2B83213C2783210427832125
:1007300020308020832104278321972E0730A000BA
:10074000A1014F08A3004E082021031DD82B8321AF
:100750007620D4007620D6007620D7007620D800E8
:100760007620D9007620DA007620DB007620DC00C7
:100770007620DD008321FE30802040305407D000F9
:10078000D101D10D500880205608802057088020C4
:1007900058088020590880205A0880205B08802053
:1007A0005C0880205D088020832104278321972E08
:1007B0000830A000A1014F08A3004E082021031D0E
:1007C000F02B83217620CE00CF0183214E0880209C
:1007D0008321DE0A83211027832104278321972E7A
:1007E0000930A000A1014F08A3004E082021031DDD
:1007F000232C83217620E00083218321640060087C
:10080000003C031D0F2C8321A801FF30A2007F3084
:10081000A30001300F20832186118321212C640045
:100820006008013C031D202C8321A801FF30A20099
:100830007F30A30001300F20832186158321212CD6
:1008400083218321972E0A30A000A1014F08A30025
:100850004E082021031D462C83217620D5008321BC
:100860006400013055020318372C0130D500832174
:100870003B2CFF30D50083215508A800FF30A20093
:100880007F30A30001300F208321972E0B30A00072
:10089000A1014F08A3004E082021031DA82C83218D
:1008A0007620E0008321832164006008003C031D62
:1008B000642C832183161811831283218316203020
:1008C000990083128321972C64006008013C031D6A
:1008D000742C8321831618158312832183164030CC
:1008E000990083128321972C64006008023C031D49
:1008F000842C8321831618158312832183162030BC
:10090000990083128321972C64006008033C031D27
:10091000942C832183161815831283218316153096
:10092000990083128321972C8321822A832183219A
:1009300083169B010030181901308312EC208321AB
:10094000831601309B0019088312EC208321972E17
:100950000C30A000A1014F08A3004E082021031D68
:10096000C32C8321831602309B0083125508EC2090
:100970008321E830AC000330AD005520031C822AEF
:10098000E0008321972E0D30A000A1014F08A300A5
:100990004E082021031DE02C8321831602309B008A
:1009A0008312E520D50083215508A800FF30A2005E
:1009B0007F30A30001300F208321822A8321972ECC
:1009C0000E30A000A1014F08A3004E082021031DF6
:1009D0002A2D83217620E30083218321640063088C
:1009E000013C031DF82C83218030E3008321172D67
:1009F00064006308023C031D022D8321C030E30024
:100A00008321172D64006308033C031D0C2D8321F3
:100A10009430E3008321172D64006308043C031D18
:100A2000162D8321D430E3008321172D83218321C8
:100A3000FE308020630880201430A9007F30B00091
:100A4000B1012030CF2083216308DE0083210427F9
:100A50008321972E0F30A000A1014F08A3004E085C
:100A60002021031D932D8321FF30D0005E08A000BC
:100A700013301B21D2005008840052083221D200CA
:100A8000D3006400520853040319482D4030DE009F
:100A900083215E08A00040301621D0005E08A0002F
:100AA00053301B21D2005008840052083221D2005A
:100AB000D3006400520853040319602D1430DE0083
:100AC00083215E08A00014301621D0005E08A0002B
:100AD00027301B21D2005008840052083221D20056
:100AE000D3006400520853040319782D5430DE00FB
:100AF00083215E08A00054301621D0005E08A000BB
:100B000067301B21D2005008840052083221D200E5
:100B1000D30064005208530403198F2DDE01832192
:100B200004278321972E1030A000A1014F08A300B5
:100B30004E082021031DFD2D8321FF30D0005E08CB
:100B4000A00013301B21D20050088400520832212B
:100B5000D200D3006400520853040319B12D54305D
:100B6000DE0783215E08A00040301621D0005E0819
:100B7000A00053301B21D2005008840052083221BB
:100B8000D200D3006400520853040319C92D403029
:100B9000DE0283215E08A00014301621D0005E081A
:100BA000A00027301B21D2005008840052083221B7
:100BB000D200D3006400520853040319E12D2C30F5
:100BC000DE0783215E08A00054301621D0005E08A5
:100BD000A00067301B21D200500884005208322147
:100BE000D200D3006400520853040319F92D403099
:100BF000DE02832104278321972E1130A000A1015A
:100C00004F08A3004E082021031D672E83215E0894
:100C1000A00054301621D0005E08A00067301B21D0
:100C2000D2005008840052083221D200D300640060
:100C30005208530403191E2E5430DE0283215E082D
:100C4000A00014301621D0005E08A00027301B2120
:100C5000D2005008840052083221D200D300640030
:100C6000520853040319362E4030DE0783215E08F4
:100C7000A00040301621D0005E08A00053301B2198
:100C8000D2005008840052083221D200D300640000
:100C90005208530403194E2E2C30DE028321FF30FC
:100CA000D0005E08A00013301B21D2005008840041
:100CB00052083221D200D3006400520853040319B1
:100CC000632E4030DE07832104278321972E1230C4
:100CD000A000A1014F08A3004E082021031D942E5F
:100CE00083217620E0008321832164006008003C9A
:100CF000031D7E2E8321E50183218B2E6400600875
:100D0000013C031D882E83210130E50083218B2EB9
:100D10008321822A83218321831603309B0083123F
:100D20006508EC208321972E8321822A8321832149
:100D30009F2E60088020DE0A10270427832183214C
:100D40008321822A83214E308020613080206D30C3
:100D50008020653080203A308020203080200E3086
:100D6000A9007F30B000B101A5013830D720FE3096
:100D70008020C03080201430A9007F30B000B10145
:100D80002D30CF20FE3080209430802056308020BF
:100D90006530802072308020733080206930802060
:100DA0006F3080206E3080203A30802020308020CC
:100DB0000330A9007F30B000B101A5014B30D7202E
:100DC000FE308020D430802042308020613080206E
:100DD00075308020643080203A30802020308020A0
:100DE0006408A9007F30B000B101A5014630D720CA
:100DF00083217620E000832108008321FE308020BB
:100E00004E088020832108008321FE30802080301E
:100E10005E07D000D101D10D500880208321080049
:100E20008321832164005E08143C031D1C2F832151
:100E30004030DE0083213A2F64005E08543C031DDD
:100E4000262F83211430DE0083213A2F64005E08B0
:100E5000283C031D302F83215430DE0083213A2F9C
:100E600064005E08683C031D392F8321DE01832165
:100E70003A2F8321832108008321832164005E08A7
:100E8000543C031D482F83212730DE008321692F26
:100E900064005E08143C031D522F83215330DE0092
:100EA0008321692F64005E08403C031D5C2F832171
:100EB0001330DE008321692F64005E08003C031DAF
:100EC000662F83216730DE008321692F8321DE03B3
:100ED00083218321080064008C1E7D2FE10A6400B9
:100EE0006108503C031D752FE1017620D000D1012F
:0C0EF0006108A03E84005008800009004A
:02400E00263F4B
:1042000000002000FF0001004C004300440020009B
:1042100043006F006E00740072006F006C006C0051
:0A4220006500720032002E0030002D
:00000001FF
